:020000040000FA
:10000000003200201902000021020000230200003B
:100010002502000027020000290200000000000065
:100020000000000000000000000000002B020000A3
:100030002D020000000000002F020000310200002D
:100040003302000033020000D50A0000E50700007B
:1000500033020000330200003302000033020000CC
:1000600033020000330200003302000033020000BC
:1000700033020000330200003302000033020000AC
:10008000330200003302000033020000330200009C
:10009000330200003302000033020000330200008C
:1000A000330200003302000033020000330200007C
:1000B00033020000330200000000000000000000D6
:1000C000330200003302000033020000330200005C
:1000D000330200003302000033020000330200004C
:1000E0003302000033020000330200000000000071
:1000F0000000000033020000000000003302000096
:1001000000000000000000000000000000000000EF
:1001100000000000000000000000000000000000DF
:1001200000000000000000000000000000000000CF
:1001300000000000000000000000000000000000BF
:1001400000000000000000000000000000000000AF
:10015000000000000000000000000000000000009F
:10016000000000000000000000000000000000008F
:10017000000000000000000000000000000000007F
:10018000000000000000000000000000000000006F
:10019000000000000000000000000000000000005F
:1001A000000000000000000000000000000000004F
:1001B000000000000000000000000000000000003F
:1001C000000000000000000000000000000000002F
:1001D000000000000000000000000000000000001F
:1001E000000000000000000000000000000000000F
:1001F00000000000000000000000000000000000FF
:10020000DFF810D000F036F8004800472D0E00004F
:10021000AFF30080003200200648804706480047C0
:10022000FEE7FEE7FEE7FEE7FEE7FEE7FEE7FEE7A6
:10023000FEE7FEE7F90800000102000040EA0103C2
:100240009B0703D009E008C9121F08C0042AFAD28C
:1002500003E011F8013B00F8013B521EF9D2704750
:10026000034611F8012B00F8012B002AF9D118469A
:1002700070470000064C074D06E0E06840F00103BF
:1002800094E8070098471034AC42F6D3FFF7BCFF60
:10029000E81300000814000010B52A2000F0CCFE7E
:1002A000C82000F0F3FD1F2000F088FE292000F098
:1002B00085FE082000F0C0FEC82000F0E7FD082001
:1002C00000F07CFEC82000F0E1FD082000F0B4FE44
:1002D000062000F0B1FE40F6B83000F0D7FD112046
:1002E00000F0F4FA0020401CC0B23228FBD30020FA
:1002F00000F0E0F8404C2070012000F0DBF82070A6
:10030000022000F0D7F82070032000F0D3F820700E
:10031000172000F0CFF82070F621012000F0E6F859
:10032000D021022000F0E2F8FE21032000F0DEF8E8
:100330000021172000F0DAF80021042000F0D6F8A0
:1003400000210F2000F0D2F80021102000F0CEF89C
:100350000021122000F0CAF80021132000F0C6F896
:10036000FF210D2000F0C2F8FF210E2000F0BEF8A2
:100370002021152000F0BAF80021162000F0B6F870
:100380000021142000F0B2F80021052000F0AEF8A2
:100390008021062000F0AAF88021072000F0A6F8AE
:1003A0000021082000F0A2F80021092000F09EF8AA
:1003B00080210A2000F09AF880210B2000F096F8A6
:1003C00000210C2000F092F8012000F073F820705A
:1003D000022000F06FF82070032000F06BF820700E
:1003E000172000F067F82070292000F025FEBDE8F6
:1003F0001040102000F06ABA18000020F8B52F2035
:100400000090684600F0F2FDD0F810050099C84051
:1004100010F0010F46D1244C0025002000F056FAC0
:1004200060556D1CEDB21B2DF7D31F48E1783C30B1
:100430001E4F01602179416061798160217BC1603B
:10044000617B0161A17B4161E17B8161217CC161B3
:10045000617C0162217E4162617E8162A17EC16216
:100460000021A0F1200C00BF01EB410350F8234014
:10047000220602D54FF07F4200E0002200EB83030A
:1004800024061D792E021D7A42EA142333432B439E
:100490004CF82130491CC9B20429E5D30449012094
:1004A0007A600870F8BD00007C0000201800002071
:1004B0000000002010B50021491CC9B20A29FBD355
:1004C00040F0200000F002FA0020401CC0B20A28D0
:1004D000FBD3002000F0FAF90020401CC0B20A282B
:1004E000FBD3BDE81040002000F0F0B970B5002546
:1004F00040F040000C462A46521CD2B20A2AFBD3D6
:1005000000F0E4F90022521CD2B20A2AFBD328469A
:1005100000F0DCF90022521CD2B20A2AFBD320469A
:10052000BDE8704000F0D2B92DE9F84304461C48FC
:10053000007808B900F0D4FAFF2000258DF80000FB
:100540004FF0FF38102C27D21648154E005D8DF85D
:1005500001001836002000F053FC307D114F00F0F0
:1005600003007F1E02280BD0304600F0F3FA022869
:100570000DD33C7002226946304600F011FC07E0C2
:100580003C7002226946304600F0DDFB00E0454643
:10059000002000F037FC00E045462846BDE8F8831F
:1005A000E80000202100002070B50B4B06461446E1
:1005B00018780D4608B900F093FA002000F020FCEE
:1005C00022462946304600F009F80446002000F093
:1005D00019FC204670BD0000E800002070B50E46F2
:1005E000144900EB400001EBC0051446E86A1835D9
:1005F00020B101280FD0022805D113E0284600F0D1
:10060000A9FAA04201D2002411E022463146284630
:1006100000F0C6FB0BE0284600F09CFAA042F4D2A2
:100620000446F2E73146284600F08DFB044620469A
:1006300070BD0000E80000200FB408B504A90091C7
:100640006A46039900F003F801B05DF814FB2DE948
:10065000F04198B0064607A8029040200025CDE959
:100660000305CDE9055690460C4614F8011B0029F8
:1006700073D0252908D002A800F046FB0598002871
:10068000F3DA18B0BDE8F081002001212278232A96
:100690001ED02B2A19D02D2A02D0302A08D102E0F0
:1006A00040F0010001E040F00200641C0029EDD19F
:1006B00000222178A1F130030A2B0CD202EB820236
:1006C00001EB4202303A641CF3E740F00400ECE72F
:1006D00040F00800E9E70023CFB22E2F0BD114F829
:1006E000011FA1F130070A2F05D203EB830301EBB1
:1006F0004303303BF3E76C290DD068290BD07029F8
:1007000054D00BDC252916D0582931D063290CD0C0
:10071000642913D114E014F8011FECE7732934D0D5
:1007200075291BD0782909D122E0D8F80000011DD5
:10073000C8F80010017802A800F0E6FA641C9DE7F2
:10074000D8F800100F1DC8F800700968CDE9002026
:100750000A2202A800F00AFAF0E733E0D8F8001005
:100760000F1DC8F800700968CDE900200A2208E0D2
:10077000D8F800100F1DC8F800700968CDE90020F6
:10078000102202A800F056FAD8E7D8F80000011DA0
:10079000C8F80010076817F8011B0029CED002A87E
:1007A00000F0B2FA05980028F5DAC7E7D8F800009B
:1007B000011DC8F8001001680820CDE900050346B6
:1007C0001022DEE7059800287FF75BAF049820B180
:1007D000024607A93046FFF7E7FEDDE904100844AA
:1007E00005904EE7F8B51248124E04464FF48C714E
:1007F00000F036FC00281AD00025C4F81851D4F8AF
:1008000018010090F07F3446FF2806D0A17F11B177
:1008100000F0CAFB01E000F005FC65772572D4E921
:10082000002101B004F10800BDE8F0401047F8BD18
:10083000003000403800002010B586B0062000F0DF
:10084000A9FB082000F0A6FB1F2000F0A3FB292035
:1008500000F0A0FB2A2000F09DFB00242F200323A2
:10086000009422462146019400F071FB062000F01E
:10087000EDFB082000F0EAFB1F2000F0E7FB292039
:1008800000F0E4FB2A2000F0E1FB01208DF81400C9
:10089000C0070490FF208DF80C408DF80D008DF8F6
:1008A0000B0002208DF80A0004208DF809001D209D
:1008B0008DF8080000238DF815401A4602A9024859
:1008C00000F0F4FA06B010BDC813000011B585B0F1
:1008D00001220DF1040C05A96B4614468CE81E009C
:1008E0000448002201A900F0A9FC9DF8000006B010
:1008F00010BD0000CC13000030B54FF08050002236
:100900008300D0F83011C3F80C21C3F81021624BDA
:100910001A60624B1B68624C2360604B1B1D1B6896
:10092000241D23605D4B08331B68241D23605B4B33
:100930000C331B68241D2360584B10331B68241D87
:100940002360564B14331B68241D2360534B18330C
:100950001B68534C20342360504B1C331B68241DF0
:1009600023604E4B20331B68241D23604B4B2433E4
:100970001B68241D2360494B28331B68241D2360FA
:10098000464B2C331B68241D2360444B30331B68BB
:10099000434C40342360414B34331B68241D236097
:1009A0003E4B38331B68241D23603C4B3C331B6893
:1009B000241D2360394B40331B68241D2360012410
:1009C000082902D1D0F8343113B1082904D006E047
:1009D000354B3449196005E0D0F8343113B108299A
:1009E00004D006E0314BFB21196005E0D0F834312A
:1009F00013B1082908D00EE090F858322C4801684D
:100A000063F30301016002E0D0F834311BB92949D6
:100A10004FF40070086028480168C90702D06FF0E1
:100A2000010101602548016841F470010160BFF3D4
:100A30004F8FBFF36F8F4FF01021D1F800020028C5
:100A400003DBD1F80402002822DA1D4B1C601D488C
:100A50000468002CFCD01224C1F800420568002D67
:100A6000FCD0C1F8044201680029FCD01A6001687A
:100A70000029FCD0BFF34F8F10487C380168124A20
:100A800001F4E06111430160BFF34F8F00BFFDE748
:100A90000F490E48086030BD3805004004040010BE
:100AA00020C50040488103008C56004018F50040E6
:100AB000E40E0040409602400004004088ED00E053
:100AC00004E5014000E401400400FA050090D00371
:100AD0003400002001480068004700000C0000209E
:100AE00010B5144C082020610220606112A0A061A2
:100AF00004F58470E0614FF4805020620020A06211
:100B000060620DA1C4F8D810E0620E49C4F8DC1090
:100B10001021C4F8E800C4E93810C4F8EC000AA1B8
:100B2000E01DFFF79DFB09A12046FFF799FB202060
:100B3000A07110BDE80000205465726D696E616C93
:100B400000000000F0110020525454005345474764
:100B5000455200000269C1688A4203D88068401A81
:100B6000104400E0501A401E704700002DE9FC5F61
:100B70000E008146DDE90C47C6F100009846934619
:100B8000824600D40846012503E000BF90FBFBF03D
:100B90006D1C5845FADAA84500D9454624B1002E07
:100BA00001DB780700D5641EB80702D5B8F1000F45
:100BB0000FD0F8070DD164B1A5420AD220214846D2
:100BC000641E00F0A1F8D9F80C000028F3DABDE8A3
:100BD000FC9FD9F80C000028F9DB002E02DA5646FB
:100BE0002D2102E0780707D52B21484600F08CF82C
:100BF000D9F80C000028EADB07F0030002280FD127
:100C0000B8F1000F0CD15CB1A54209D230214846A1
:100C1000641E00F079F8D9F80C000028F3DAD6E762
:100C2000CDE9004743465A463146484600F002F8AF
:100C3000CDE700002DE9F84F8246DDE90A4B012699
:100C4000984691460D460846374602E0B0FBF9F05B
:100C50007F1C4845FAD2B84500D947465FEACB70B9
:100C600017D1B4B15FEA8B7002D5B8F1000F02D092
:100C7000202000900BE03020FBE75046641E0099D6
:100C800000F042F8DAF80C00002838DB0CB1A7427B
:100C9000F3D3DAF80C00002831DB00BFB8F1010F04
:100CA00002D9A8F1010803E0B5FBF6F0484502D3EC
:100CB00006FB09F6F2E7DFF84C8000BFB5FBF6F063
:100CC00000FB165518F80010504600F01DF8DAF831
:100CD0000C00002803DBB6FBF9F6002EEED15FEA2C
:100CE000CB700CD0002C0AD0A74208D2202150464D
:100CF000641E00F009F8DAF80C000028F2DABDE80A
:100D0000F88F0000D813000010B50446D4E9013074
:100D1000421C934205D323681954A260E068401C2A
:100D2000E060D4E90102824209D121682069FFF71D
:100D30003BFCA168884203D04FF0FF30E06010BD5B
:100D40000020A06010BD2DE9F047C4681746894611
:100D500006464FF000083069A04201D9051B02E0A9
:100D6000B168201A0D1AB0686D1E001BA84200D889
:100D70000546BD4200D33D4670682A462044494698
:100D8000FFF75CFAB0687F1B2C44A844A944A0423A
:100D900000D10024F460002FDDD14046BDE8F0878B
:100DA0002DE9F04104468846D4E90207C51BE168F5
:100DB000606816460844B54206D94146FFF73EFA38
:100DC000B819E060BDE8F0812A464146FFF736FADF
:100DD000761B08EB050132466068FFF72FFAE660E4
:100DE000F0E702E008C8121F08C1002AFAD17047D4
:100DF0007047002001E001C1121F002AFBD170479B
:100E000000F002B800F008B872B602480168491C48
:100E1000016070471400002003490868401E086004
:100E200000D162B67047000014000020FFF704FDF7
:100E3000FFF732FA114E124C4FF47A77002500BFBB
:100E4000FFF7DCFA2078012815D1A068B84210DD40
:100E500065602079FFF768FB60680AA156F82020DA
:100E60000020FFF7E9FB6068401C60600228F0DBAF
:100E700001E0401CA0602570E2E70000980000201F
:100E80000000002025640D0A000000002DE9F0415B
:100E9000040007D0044E4FF47A47751C3846A84723
:100EA000641EFAD1BDE8F081C01300002DE9FF41B6
:100EB0001C460378164D174E45F82320103545F88B
:100EC0002340F0CE8DE8F0000C788DF800404C788F
:100ED0008DF801408C788DF80240CC788DF8034075
:100EE0000C798DF805404C798DF806408C68029499
:100EF0000C7B8DF80C40497B8DF80D1002B1064A31
:100F00006946001D00F0D2F804B0BDE8F081000091
:100F10005C000020B0130000B91200002DE9FF4171
:100F20001C46DDE90A7815460E46684600F050F882
:100F300046EA450141EA840141EA072242EA0841C2
:100F4000009A00EB8200C0F80017BDE8FF812DE990
:100F5000FF411C46DDE90A7815460E46684600F05A
:100F600053F846EA450141EA840141EA072242EA90
:100F70000841009A00EB8200C0F80017BDE8FF812D
:100F80001CB5002100910B46012201911146FFF78B
:100F9000C5FF1CBD1CB5002100910B46012201912B
:100FA0001146FFF7D4FF1CBD01B5684600F010F8EC
:100FB000009A01219140C0F80C1508BD01B56846A2
:100FC00000F014F8009A01219140C0F80C1508BDFA
:100FD0000168202902D24FF0A040704701F01F01A4
:100FE000016001487047000000030050016820299B
:100FF00002D24FF0A040704701F01F01016001488C
:1010000070470000000300500168202902D24FF011
:10101000A040704701F01F010160014870470000C7
:101020000003005001B56846FFF7D2FF009A012186
:101030009140C0F8081508BD01B56846FFF7D6FF16
:10104000009A01219140C0F8081508BD01B5684615
:10105000FFF7DAFF009A01219140C0F8081508BD9A
:101060004058002800D0012070470121B1EB507F8B
:1010700001D1012070470020704770B50D4600F087
:101080000FF904000FD00020FFF7BAFE207920B13D
:101090000020FFF7B7FE112070BD012025602071F0
:1010A0000020FFF7AFFE002070BD00002DE9FC5FBF
:1010B0000C4601799046DFF87CB101EBC1020BEBE5
:1010C00082060746307F994610B10820BDE8FC9F94
:1010D000594A3868054652F82110FFF7CEFF08B18B
:1010E0001120F3E7C6E90089207B0128207802D887
:1010F000FFF75AFF01E0FFF795FF4FF0000ACDF828
:1011000000A0CDF804A02078534652460121FFF7F5
:1011100005FF60784FF0FF38FF2806D08146FFF7C3
:1011200043FF4846FFF72CFF00E0C146A078FF28A8
:1011300009D0002280460123CDF800A01146CDF849
:1011400004A0FFF7EBFE3879A17800EBC0020BEBAF
:10115000820080F82010E078FF2817D0217911B1A3
:10116000FFF722FF01E0FFF75DFFE078FFF708FFE0
:101170003879E17800EBC0020BEB8202D1773A7943
:10118000217902EBC2020BEB820081772278C5F84D
:101190000825C5F80C95C5F81085A068C5F8240584
:1011A000217B607B00B10120012904D0022905D0F8
:1011B000032908D105E040F0020004E040F00400FB
:1011C00001E040F00600C5F85405A079C5F8C00557
:1011D000306810B14020C5F804030720C5F80005A9
:1011E0003068012108B338686279000B40B20028EA
:1011F0004FEA421206DA00F00F0000F1E02080F81A
:10120000142D03E000F1E02080F800243868000B82
:1012100040B200F01F0301FA03F24009800000F120
:10122000E020C0F88022C0F80021504686F81DA0BA
:1012300031774BE738000020AC1300002DE9F04176
:1012400005460F460079154900EBC00001EB80040C
:101250001646607F10B11120BDE8F081206820B1F2
:1012600016F0140F01D10120607797E80F0004F108
:101270000C0888E80F00E07FFF2806D0A17F11B19D
:10128000FFF7D0FE01E0FFF78FFE33463A462146D6
:101290002868BDE8F04100F02BB8000038000020BD
:1012A0000349884201D1034870470020704700007D
:1012B000002000400C00002000B585B00A460178EF
:1012C0008DF8001041680191017A8DF80810C1680D
:1012D0000391007C8DF81000044850F8221010385B
:1012E00050F822206846904705B000BD6C000020F1
:1012F0002DE9F843044610681E4615460F464FF088
:10130000000810B1FFF7B1FEF8B1A86810B1FFF7FF
:10131000ACFED0B1D5E90001C4F84405C4F84815C5
:10132000D5E90201C4F83405C4F838154FF48C75BA
:101330004046C4F81881D4F818110091F2074FF014
:10134000010107D0C4F8501506E087F81D80102071
:10135000BDE8F883C4F85005B20702D5C4F84015BB
:1013600001E0C4F84005300700D42161386848B175
:1013700046F38000401C4FF0400014D0C4F8040332
:101380000020E5E729462046FFF76AFE0028F9D04D
:10139000F87FFF28F4D0B97F11B1FFF705FEEFE722
:1013A000FFF740FEECE7C4F80803E9E7E5070000B3
:1013B000FFFFFFFF0006FF000000004000000000EC
:1013C0000338FDD8704700000000000000300040E6
:1013D0000000000001000000303132333435363770
:1013E00038394142434445460814000000000020BB
:1013F00038000000E20D000040140000380000201A
:10140000C8310000F20D00000000000000000000E4
:1014100000000000000000000000000000000000CC
:101420000100000000000000003031323334353656
:101430003738394142434445460000000090D0030C
:0400000500000201F4
:00000001FF
